{
  "contractName": "MyERC20Token",
  "abi": [
    {
      "inputs": [],
      "stateMutability": "nonpayable",
      "type": "constructor"
    },
    {
      "anonymous": false,
      "inputs": [
        {
          "indexed": true,
          "internalType": "address",
          "name": "_owner",
          "type": "address"
        },
        {
          "indexed": true,
          "internalType": "address",
          "name": "_spender",
          "type": "address"
        },
        {
          "indexed": false,
          "internalType": "uint256",
          "name": "_value",
          "type": "uint256"
        }
      ],
      "name": "Approval",
      "type": "event"
    },
    {
      "anonymous": false,
      "inputs": [
        {
          "indexed": false,
          "internalType": "address",
          "name": "account",
          "type": "address"
        },
        {
          "indexed": false,
          "internalType": "uint256",
          "name": "value",
          "type": "uint256"
        }
      ],
      "name": "Burn",
      "type": "event"
    },
    {
      "anonymous": false,
      "inputs": [
        {
          "indexed": false,
          "internalType": "address",
          "name": "account",
          "type": "address"
        },
        {
          "indexed": false,
          "internalType": "uint256",
          "name": "value",
          "type": "uint256"
        }
      ],
      "name": "Mint",
      "type": "event"
    },
    {
      "anonymous": false,
      "inputs": [
        {
          "indexed": true,
          "internalType": "address",
          "name": "_from",
          "type": "address"
        },
        {
          "indexed": true,
          "internalType": "address",
          "name": "_to",
          "type": "address"
        },
        {
          "indexed": false,
          "internalType": "uint256",
          "name": "_value",
          "type": "uint256"
        }
      ],
      "name": "Transfer",
      "type": "event"
    },
    {
      "inputs": [],
      "name": "tokenSummary",
      "outputs": [
        {
          "internalType": "string",
          "name": "_name",
          "type": "string"
        },
        {
          "internalType": "string",
          "name": "_symbol",
          "type": "string"
        },
        {
          "internalType": "address",
          "name": "_initialAccount",
          "type": "address"
        }
      ],
      "stateMutability": "view",
      "type": "function",
      "constant": true
    },
    {
      "inputs": [
        {
          "internalType": "address",
          "name": "_to",
          "type": "address"
        },
        {
          "internalType": "uint256",
          "name": "_value",
          "type": "uint256"
        }
      ],
      "name": "transfer",
      "outputs": [
        {
          "internalType": "bool",
          "name": "",
          "type": "bool"
        }
      ],
      "stateMutability": "nonpayable",
      "type": "function"
    },
    {
      "inputs": [
        {
          "internalType": "address",
          "name": "_spender",
          "type": "address"
        },
        {
          "internalType": "uint256",
          "name": "_value",
          "type": "uint256"
        }
      ],
      "name": "approve",
      "outputs": [
        {
          "internalType": "bool",
          "name": "",
          "type": "bool"
        }
      ],
      "stateMutability": "nonpayable",
      "type": "function"
    },
    {
      "inputs": [
        {
          "internalType": "address",
          "name": "_from",
          "type": "address"
        },
        {
          "internalType": "address",
          "name": "_to",
          "type": "address"
        },
        {
          "internalType": "uint256",
          "name": "_value",
          "type": "uint256"
        }
      ],
      "name": "transferFrom",
      "outputs": [
        {
          "internalType": "bool",
          "name": "",
          "type": "bool"
        }
      ],
      "stateMutability": "nonpayable",
      "type": "function"
    },
    {
      "inputs": [],
      "name": "totalSupply",
      "outputs": [
        {
          "internalType": "uint256",
          "name": "",
          "type": "uint256"
        }
      ],
      "stateMutability": "view",
      "type": "function",
      "constant": true
    },
    {
      "inputs": [
        {
          "internalType": "address",
          "name": "_account",
          "type": "address"
        }
      ],
      "name": "balanceOf",
      "outputs": [
        {
          "internalType": "uint256",
          "name": "",
          "type": "uint256"
        }
      ],
      "stateMutability": "view",
      "type": "function",
      "constant": true
    },
    {
      "inputs": [
        {
          "internalType": "address",
          "name": "_owner",
          "type": "address"
        },
        {
          "internalType": "address",
          "name": "_spender",
          "type": "address"
        }
      ],
      "name": "allowance",
      "outputs": [
        {
          "internalType": "uint256",
          "name": "",
          "type": "uint256"
        }
      ],
      "stateMutability": "view",
      "type": "function",
      "constant": true
    },
    {
      "inputs": [],
      "name": "name",
      "outputs": [
        {
          "internalType": "string",
          "name": "",
          "type": "string"
        }
      ],
      "stateMutability": "view",
      "type": "function",
      "constant": true
    },
    {
      "inputs": [],
      "name": "symbol",
      "outputs": [
        {
          "internalType": "string",
          "name": "",
          "type": "string"
        }
      ],
      "stateMutability": "view",
      "type": "function",
      "constant": true
    },
    {
      "inputs": [],
      "name": "decimals",
      "outputs": [
        {
          "internalType": "uint8",
          "name": "",
          "type": "uint8"
        }
      ],
      "stateMutability": "pure",
      "type": "function",
      "constant": true
    },
    {
      "inputs": [
        {
          "internalType": "uint256",
          "name": "_value",
          "type": "uint256"
        }
      ],
      "name": "burn",
      "outputs": [
        {
          "internalType": "bool",
          "name": "",
          "type": "bool"
        }
      ],
      "stateMutability": "nonpayable",
      "type": "function"
    },
    {
      "inputs": [
        {
          "internalType": "address",
          "name": "_account",
          "type": "address"
        },
        {
          "internalType": "uint256",
          "name": "_value",
          "type": "uint256"
        }
      ],
      "name": "mint",
      "outputs": [
        {
          "internalType": "bool",
          "name": "success",
          "type": "bool"
        }
      ],
      "stateMutability": "nonpayable",
      "type": "function"
    }
  ],
  "bytecode": "0x60806040526301406f406005553480156200001957600080fd5b5033600660006101000a81548173ffffffffffffffffffffffffffffffffffffffff021916908373ffffffffffffffffffffffffffffffffffffffff160217905550600554600360003373ffffffffffffffffffffffffffffffffffffffff1673ffffffffffffffffffffffffffffffffffffffff1681526020019081526020016000208190555060405180606001604052806040518060400160405280600981526020017f42756261436f696e73000000000000000000000000000000000000000000000081525081526020016040518060400160405280600481526020017f425542410000000000000000000000000000000000000000000000000000000081525081526020013373ffffffffffffffffffffffffffffffffffffffff168152506000808201518160000190805190602001906200015b929190620001cb565b5060208201518160010190805190602001906200017a929190620001cb565b5060408201518160020160006101000a81548173ffffffffffffffffffffffffffffffffffffffff021916908373ffffffffffffffffffffffffffffffffffffffff160217905550905050620002e0565b828054620001d9906200027b565b90600052602060002090601f016020900481019282620001fd576000855562000249565b82601f106200021857805160ff191683800117855562000249565b8280016001018555821562000249579182015b82811115620002485782518255916020019190600101906200022b565b5b5090506200025891906200025c565b5090565b5b80821115620002775760008160009055506001016200025d565b5090565b600060028204905060018216806200029457607f821691505b60208210811415620002ab57620002aa620002b1565b5b50919050565b7f4e487b7100000000000000000000000000000000000000000000000000000000600052602260045260246000fd5b61161c80620002f06000396000f3fe608060405234801561001057600080fd5b50600436106100a45760003560e01c806306fdde03146100a9578063095ea7b3146100c757806318160ddd146100f75780631fc377841461011557806323b872dd14610135578063313ce5671461016557806340c10f191461018357806342966c68146101b357806370a08231146101e357806395d89b4114610213578063a9059cbb14610231578063dd62ed3e14610261575b600080fd5b6100b1610291565b6040516100be91906112dd565b60405180910390f35b6100e160048036038101906100dc919061119c565b610325565b6040516100ee91906112c2565b60405180910390f35b6100ff610450565b60405161010c9190611364565b60405180910390f35b61011d61045a565b60405161012c939291906112ff565b60405180910390f35b61014f600480360381019061014a919061114d565b6105a2565b60405161015c91906112c2565b60405180910390f35b61016d610922565b60405161017a919061137f565b60405180910390f35b61019d6004803603810190610198919061119c565b61092b565b6040516101aa91906112c2565b60405180910390f35b6101cd60048036038101906101c891906111d8565b610b18565b6040516101da91906112c2565b60405180910390f35b6101fd60048036038101906101f891906110e8565b610c9e565b60405161020a9190611364565b60405180910390f35b61021b610ce7565b60405161022891906112dd565b60405180910390f35b61024b6004803603810190610246919061119c565b610d7c565b60405161025891906112c2565b60405180910390f35b61027b60048036038101906102769190611111565b610f9d565b6040516102889190611364565b60405180910390f35b60606000800180546102a2906114c8565b80601f01602080910402602001604051908101604052809291908181526020018280546102ce906114c8565b801561031b5780601f106102f05761010080835404028352916020019161031b565b820191906000526020600020905b8154815290600101906020018083116102fe57829003601f168201915b5050505050905090565b60008073ffffffffffffffffffffffffffffffffffffffff168373ffffffffffffffffffffffffffffffffffffffff16141561036057600080fd5b81600460003373ffffffffffffffffffffffffffffffffffffffff1673ffffffffffffffffffffffffffffffffffffffff16815260200190815260200160002060008573ffffffffffffffffffffffffffffffffffffffff1673ffffffffffffffffffffffffffffffffffffffff168152602001908152602001600020819055508273ffffffffffffffffffffffffffffffffffffffff163373ffffffffffffffffffffffffffffffffffffffff167f8c5be1e5ebec7d5bd14f71427d1e84f3dd0314c0f7b2291e5b200ac8c7c3b9258460405161043e9190611364565b60405180910390a36001905092915050565b6000600554905090565b600080600001805461046b906114c8565b80601f0160208091040260200160405190810160405280929190818152602001828054610497906114c8565b80156104e45780601f106104b9576101008083540402835291602001916104e4565b820191906000526020600020905b8154815290600101906020018083116104c757829003601f168201915b5050505050908060010180546104f9906114c8565b80601f0160208091040260200160405190810160405280929190818152602001828054610525906114c8565b80156105725780601f1061054757610100808354040283529160200191610572565b820191906000526020600020905b81548152906001019060200180831161055557829003601f168201915b5050505050908060020160009054906101000a900473ffffffffffffffffffffffffffffffffffffffff16905083565b600081600360008673ffffffffffffffffffffffffffffffffffffffff1673ffffffffffffffffffffffffffffffffffffffff1681526020019081526020016000205410156105f057600080fd5b81600460008673ffffffffffffffffffffffffffffffffffffffff1673ffffffffffffffffffffffffffffffffffffffff16815260200190815260200160002060003373ffffffffffffffffffffffffffffffffffffffff1673ffffffffffffffffffffffffffffffffffffffff16815260200190815260200160002054101561067957600080fd5b6106cb82600360008773ffffffffffffffffffffffffffffffffffffffff1673ffffffffffffffffffffffffffffffffffffffff1681526020019081526020016000205461102490919063ffffffff16565b600360008673ffffffffffffffffffffffffffffffffffffffff1673ffffffffffffffffffffffffffffffffffffffff1681526020019081526020016000208190555061076082600360008673ffffffffffffffffffffffffffffffffffffffff1673ffffffffffffffffffffffffffffffffffffffff1681526020019081526020016000205461107190919063ffffffff16565b600360008573ffffffffffffffffffffffffffffffffffffffff1673ffffffffffffffffffffffffffffffffffffffff1681526020019081526020016000208190555061083282600460008773ffffffffffffffffffffffffffffffffffffffff1673ffffffffffffffffffffffffffffffffffffffff16815260200190815260200160002060003373ffffffffffffffffffffffffffffffffffffffff1673ffffffffffffffffffffffffffffffffffffffff1681526020019081526020016000205461102490919063ffffffff16565b600460008673ffffffffffffffffffffffffffffffffffffffff1673ffffffffffffffffffffffffffffffffffffffff16815260200190815260200160002060003373ffffffffffffffffffffffffffffffffffffffff1673ffffffffffffffffffffffffffffffffffffffff168152602001908152602001600020819055508273ffffffffffffffffffffffffffffffffffffffff168473ffffffffffffffffffffffffffffffffffffffff167fddf252ad1be2c89b69c2b068fc378daa952ba7f163c4a11628f55a4df523b3ef8460405161090f9190611364565b60405180910390a3600190509392505050565b60006008905090565b6000600660009054906101000a900473ffffffffffffffffffffffffffffffffffffffff168073ffffffffffffffffffffffffffffffffffffffff163373ffffffffffffffffffffffffffffffffffffffff16146109be576040517f08c379a00000000000000000000000000000000000000000000000000000000081526004016109b590611344565b60405180910390fd5b610a1083600360008773ffffffffffffffffffffffffffffffffffffffff1673ffffffffffffffffffffffffffffffffffffffff1681526020019081526020016000205461107190919063ffffffff16565b600360008673ffffffffffffffffffffffffffffffffffffffff1673ffffffffffffffffffffffffffffffffffffffff16815260200190815260200160002081905550610a688360055461107190919063ffffffff16565b6005819055508373ffffffffffffffffffffffffffffffffffffffff16600073ffffffffffffffffffffffffffffffffffffffff167fddf252ad1be2c89b69c2b068fc378daa952ba7f163c4a11628f55a4df523b3ef85604051610acc9190611364565b60405180910390a37f0f6798a560793a54c3bcfe86a93cde1e73087d944c0ea20544137d41213968858484604051610b05929190611299565b60405180910390a1600191505092915050565b6000600660009054906101000a900473ffffffffffffffffffffffffffffffffffffffff168073ffffffffffffffffffffffffffffffffffffffff163373ffffffffffffffffffffffffffffffffffffffff1614610bab576040517f08c379a0000000000000000000000000000000000000000000000000000000008152600401610ba290611344565b60405180910390fd5b610bfd83600360003373ffffffffffffffffffffffffffffffffffffffff1673ffffffffffffffffffffffffffffffffffffffff1681526020019081526020016000205461102490919063ffffffff16565b600360003373ffffffffffffffffffffffffffffffffffffffff1673ffffffffffffffffffffffffffffffffffffffff16815260200190815260200160002081905550610c558360055461102490919063ffffffff16565b6005819055507fcc16f5dbb4873280815c1ee09dbd06736cffcc184412cf7a71a0fdb75d397ca53384604051610c8c929190611299565b60405180910390a16001915050919050565b6000600360008373ffffffffffffffffffffffffffffffffffffffff1673ffffffffffffffffffffffffffffffffffffffff168152602001908152602001600020549050919050565b606060006001018054610cf9906114c8565b80601f0160208091040260200160405190810160405280929190818152602001828054610d25906114c8565b8015610d725780601f10610d4757610100808354040283529160200191610d72565b820191906000526020600020905b815481529060010190602001808311610d5557829003601f168201915b5050505050905090565b600081600360003373ffffffffffffffffffffffffffffffffffffffff1673ffffffffffffffffffffffffffffffffffffffff168152602001908152602001600020541015610dca57600080fd5b600073ffffffffffffffffffffffffffffffffffffffff168373ffffffffffffffffffffffffffffffffffffffff161415610e0457600080fd5b610e5682600360003373ffffffffffffffffffffffffffffffffffffffff1673ffffffffffffffffffffffffffffffffffffffff1681526020019081526020016000205461102490919063ffffffff16565b600360003373ffffffffffffffffffffffffffffffffffffffff1673ffffffffffffffffffffffffffffffffffffffff16815260200190815260200160002081905550610eeb82600360008673ffffffffffffffffffffffffffffffffffffffff1673ffffffffffffffffffffffffffffffffffffffff1681526020019081526020016000205461107190919063ffffffff16565b600360008573ffffffffffffffffffffffffffffffffffffffff1673ffffffffffffffffffffffffffffffffffffffff168152602001908152602001600020819055508273ffffffffffffffffffffffffffffffffffffffff163373ffffffffffffffffffffffffffffffffffffffff167fddf252ad1be2c89b69c2b068fc378daa952ba7f163c4a11628f55a4df523b3ef84604051610f8b9190611364565b60405180910390a36001905092915050565b6000600460008473ffffffffffffffffffffffffffffffffffffffff1673ffffffffffffffffffffffffffffffffffffffff16815260200190815260200160002060008373ffffffffffffffffffffffffffffffffffffffff1673ffffffffffffffffffffffffffffffffffffffff16815260200190815260200160002054905092915050565b60008282111561105d577f4e487b7100000000000000000000000000000000000000000000000000000000600052600160045260246000fd5b8183611069919061140c565b905092915050565b6000818361107f91906113b6565b9050828110156110b8577f4e487b7100000000000000000000000000000000000000000000000000000000600052600160045260246000fd5b92915050565b6000813590506110cd816115b8565b92915050565b6000813590506110e2816115cf565b92915050565b6000602082840312156110fa57600080fd5b6000611108848285016110be565b91505092915050565b6000806040838503121561112457600080fd5b6000611132858286016110be565b9250506020611143858286016110be565b9150509250929050565b60008060006060848603121561116257600080fd5b6000611170868287016110be565b9350506020611181868287016110be565b9250506040611192868287016110d3565b9150509250925092565b600080604083850312156111af57600080fd5b60006111bd858286016110be565b92505060206111ce858286016110d3565b9150509250929050565b6000602082840312156111ea57600080fd5b60006111f8848285016110d3565b91505092915050565b61120a81611440565b82525050565b61121981611452565b82525050565b600061122a8261139a565b61123481856113a5565b9350611244818560208601611495565b61124d81611558565b840191505092915050565b60006112656024836113a5565b915061127082611569565b604082019050919050565b6112848161147e565b82525050565b61129381611488565b82525050565b60006040820190506112ae6000830185611201565b6112bb602083018461127b565b9392505050565b60006020820190506112d76000830184611210565b92915050565b600060208201905081810360008301526112f7818461121f565b905092915050565b60006060820190508181036000830152611319818661121f565b9050818103602083015261132d818561121f565b905061133c6040830184611201565b949350505050565b6000602082019050818103600083015261135d81611258565b9050919050565b6000602082019050611379600083018461127b565b92915050565b6000602082019050611394600083018461128a565b92915050565b600081519050919050565b600082825260208201905092915050565b60006113c18261147e565b91506113cc8361147e565b9250827fffffffffffffffffffffffffffffffffffffffffffffffffffffffffffffffff03821115611401576114006114fa565b5b828201905092915050565b60006114178261147e565b91506114228361147e565b925082821015611435576114346114fa565b5b828203905092915050565b600061144b8261145e565b9050919050565b60008115159050919050565b600073ffffffffffffffffffffffffffffffffffffffff82169050919050565b6000819050919050565b600060ff82169050919050565b60005b838110156114b3578082015181840152602081019050611498565b838111156114c2576000848401525b50505050565b600060028204905060018216806114e057607f821691505b602082108114156114f4576114f3611529565b5b50919050565b7f4e487b7100000000000000000000000000000000000000000000000000000000600052601160045260246000fd5b7f4e487b7100000000000000000000000000000000000000000000000000000000600052602260045260246000fd5b6000601f19601f8301169050919050565b7f6d73672e73656e64657220213d206f776e6572206f662074686520636f6e747260008201527f6163747300000000000000000000000000000000000000000000000000000000602082015250565b6115c181611440565b81146115cc57600080fd5b50565b6115d88161147e565b81146115e357600080fd5b5056fea2646970667358221220a3bf16c7e294c0b62c84f4349c8cc24b8f2fc47519c539a24d386ad79b18c60e64736f6c63430008040033",
  "immutableReferences": {},
  "source": "// //SPDX-License-Identifier: MIT\n\npragma solidity 0.8.4;\nimport \"./SafeMath.sol\";\nimport \"./IERC20.sol\";\nimport \"./Auth.sol\";\n\n/*\n    To-do: add some security feature\n */\ncontract MyERC20Token is IERC20, Auth {\n    using SafeMath for uint;\n    TokenSummary public tokenSummary;\n    /*\n        Internal: can only be called from this contract.\n     */\n    mapping(address => uint256) internal balances;\n    mapping(address => mapping (address => uint256)) allowed;\n\n    uint256 internal totalSupplyToken = 21000000;\n    address private owner;\n\n    struct TokenSummary {\n        string _name;\n        string _symbol;\n        address _initialAccount;\n    }\n    /*\n        Memory data lives until the execution of the function.\n        Why doesn't initialAccount have 'memory'?\n        Payable: it can receive ether, this function modifies the state of the EVM because it is payable. (pag. 147 ETH book)\n        The inital balance is stored in a storage mapping (balances).\n     */\n    constructor() {\n        owner = msg.sender;\n        balances[msg.sender] = totalSupplyToken;\n        tokenSummary = TokenSummary(\"BubaCoins\", \"BUBA\", msg.sender);\n    }\n\n    function transfer(address _to, uint256 _value) public override returns (bool)  {\n        require(balances[msg.sender] >= _value);\n        require(_to != address(0));\n\n        balances[msg.sender] = balances[msg.sender].sub(_value);\n        balances[_to] = balances[_to].add(_value);  \n\n        emit Transfer(msg.sender, _to, _value);\n        return true;\n    }\n\n    function approve(address _spender, uint256 _value) public override returns (bool) {\n        require(_spender != address(0));\n        allowed[msg.sender][_spender] = _value;\n        emit Approval(msg.sender, _spender, _value);\n        return true;\n    }\n\n    function transferFrom(address _from, address _to, uint256 _value) public override returns (bool) {\n        require(balances[_from] >= _value);\n        require(allowed[_from][msg.sender] >= _value);\n        \n        balances[_from] = balances[_from].sub(_value);\n        balances[_to] = balances[_to].add(_value);\n        allowed[_from][msg.sender] = allowed[_from][msg.sender].sub(_value);\n\n        emit Transfer(_from, _to, _value);\n        return true;\n    }\n\n    function totalSupply() public override view returns (uint256) {\n        return totalSupplyToken;\n    }\n\n    function balanceOf(address _account) public override view returns (uint256) {\n        return balances[_account];\n    } \n\n    function allowance(address _owner, address _spender) public override view returns (uint256) {\n        return allowed[_owner][_spender];\n    }\n\n    function name() public override view returns (string memory){\n        return tokenSummary._name;\n    }\n\n    function symbol() public override view returns (string memory) {\n        return tokenSummary._symbol;\n    }\n\n    function decimals() public override pure returns (uint8) {\n        return 8;\n    }\n\n    function burn(uint256 _value) isOwnerOfContract(owner) public returns (bool) { \n        balances[msg.sender] = balances[msg.sender].sub(_value);\n        totalSupplyToken = totalSupplyToken.sub(_value);\n        emit Burn(msg.sender, _value);\n        return true;\n    }\n\n    function mint(address _account, uint256 _value) isOwnerOfContract(owner) public returns (bool success) {\n        balances[_account] = balances[_account].add(_value);\n        totalSupplyToken = totalSupplyToken.add(_value);\n        emit Transfer(address(0), _account, _value);\n        emit Mint(_account, _value);\n        return true;\n    }\n\n    event Mint(address account, uint256 value);\n    event Burn(address account, uint256 value);\n}",
  "sourcePath": "/Users/nick/Documents/Solidity/BubaCoins/CoinsTest/contracts/MyERC20Token.sol",
  "compiler": {
    "name": "solc",
    "version": "0.8.4+commit.c7e474f2.Emscripten.clang"
  },
  "schemaVersion": "3.4.1",
  "updatedAt": "2021-05-20T11:01:30.802Z",
  "networkType": "ethereum",
  "devdoc": {
    "kind": "dev",
    "methods": {},
    "version": 1
  },
  "userdoc": {
    "kind": "user",
    "methods": {},
    "version": 1
  }
}